{
  "contractName": "evoting",
  "abi": [
    {
      "inputs": [
        {
          "internalType": "uint256",
          "name": "",
          "type": "uint256"
        }
      ],
      "name": "allevent",
      "outputs": [
        {
          "internalType": "uint256",
          "name": "eid",
          "type": "uint256"
        },
        {
          "internalType": "string",
          "name": "question",
          "type": "string"
        },
        {
          "internalType": "string",
          "name": "owner",
          "type": "string"
        },
        {
          "internalType": "string",
          "name": "state",
          "type": "string"
        }
      ],
      "stateMutability": "view",
      "type": "function",
      "constant": true
    },
    {
      "inputs": [
        {
          "internalType": "uint256",
          "name": "",
          "type": "uint256"
        }
      ],
      "name": "allrecord",
      "outputs": [
        {
          "internalType": "uint256",
          "name": "eid",
          "type": "uint256"
        },
        {
          "internalType": "string",
          "name": "answer",
          "type": "string"
        }
      ],
      "stateMutability": "view",
      "type": "function",
      "constant": true
    },
    {
      "inputs": [
        {
          "internalType": "uint256",
          "name": "",
          "type": "uint256"
        }
      ],
      "name": "alluser",
      "outputs": [
        {
          "internalType": "string",
          "name": "username",
          "type": "string"
        },
        {
          "internalType": "string",
          "name": "password",
          "type": "string"
        },
        {
          "internalType": "string",
          "name": "addr",
          "type": "string"
        }
      ],
      "stateMutability": "view",
      "type": "function",
      "constant": true
    },
    {
      "inputs": [
        {
          "internalType": "uint256",
          "name": "",
          "type": "uint256"
        }
      ],
      "name": "alluserringdetail",
      "outputs": [
        {
          "internalType": "uint256",
          "name": "x",
          "type": "uint256"
        },
        {
          "internalType": "uint256",
          "name": "y",
          "type": "uint256"
        },
        {
          "internalType": "uint256",
          "name": "id",
          "type": "uint256"
        },
        {
          "internalType": "string",
          "name": "urd_id",
          "type": "string"
        }
      ],
      "stateMutability": "view",
      "type": "function",
      "constant": true
    },
    {
      "inputs": [],
      "name": "eventId",
      "outputs": [
        {
          "internalType": "uint256",
          "name": "",
          "type": "uint256"
        }
      ],
      "stateMutability": "view",
      "type": "function",
      "constant": true
    },
    {
      "inputs": [
        {
          "internalType": "string",
          "name": "_username",
          "type": "string"
        },
        {
          "internalType": "string",
          "name": "_password",
          "type": "string"
        },
        {
          "internalType": "string",
          "name": "_addr",
          "type": "string"
        }
      ],
      "name": "createuser",
      "outputs": [
        {
          "internalType": "string",
          "name": "",
          "type": "string"
        }
      ],
      "stateMutability": "nonpayable",
      "type": "function"
    },
    {
      "inputs": [
        {
          "internalType": "string",
          "name": "_question",
          "type": "string"
        },
        {
          "internalType": "string[]",
          "name": "_answers",
          "type": "string[]"
        },
        {
          "internalType": "string",
          "name": "_owner",
          "type": "string"
        }
      ],
      "name": "createevent",
      "outputs": [
        {
          "internalType": "string",
          "name": "",
          "type": "string"
        }
      ],
      "stateMutability": "nonpayable",
      "type": "function"
    },
    {
      "inputs": [
        {
          "internalType": "uint256",
          "name": "_eid",
          "type": "uint256"
        },
        {
          "internalType": "string",
          "name": "state",
          "type": "string"
        }
      ],
      "name": "changeeventstate",
      "outputs": [
        {
          "internalType": "string",
          "name": "",
          "type": "string"
        }
      ],
      "stateMutability": "nonpayable",
      "type": "function"
    },
    {
      "inputs": [
        {
          "internalType": "uint256",
          "name": "_eid",
          "type": "uint256"
        },
        {
          "internalType": "string",
          "name": "_name",
          "type": "string"
        }
      ],
      "name": "joinevent",
      "outputs": [
        {
          "internalType": "string",
          "name": "",
          "type": "string"
        }
      ],
      "stateMutability": "nonpayable",
      "type": "function"
    },
    {
      "inputs": [
        {
          "internalType": "uint256",
          "name": "_eid",
          "type": "uint256"
        },
        {
          "internalType": "string",
          "name": "_answer",
          "type": "string"
        }
      ],
      "name": "voting",
      "outputs": [
        {
          "internalType": "string",
          "name": "",
          "type": "string"
        }
      ],
      "stateMutability": "nonpayable",
      "type": "function"
    },
    {
      "inputs": [
        {
          "internalType": "uint256",
          "name": "_x",
          "type": "uint256"
        },
        {
          "internalType": "uint256",
          "name": "_y",
          "type": "uint256"
        },
        {
          "internalType": "uint256",
          "name": "_id",
          "type": "uint256"
        },
        {
          "internalType": "string",
          "name": "_urd_id",
          "type": "string"
        }
      ],
      "name": "createuserringdetail",
      "outputs": [
        {
          "internalType": "string",
          "name": "",
          "type": "string"
        }
      ],
      "stateMutability": "nonpayable",
      "type": "function"
    },
    {
      "inputs": [
        {
          "internalType": "string",
          "name": "_ps_id",
          "type": "string"
        },
        {
          "internalType": "uint256[]",
          "name": "_a0",
          "type": "uint256[]"
        },
        {
          "internalType": "uint256[]",
          "name": "_a1",
          "type": "uint256[]"
        },
        {
          "internalType": "uint256[]",
          "name": "_a2",
          "type": "uint256[]"
        }
      ],
      "name": "addpartsign",
      "outputs": [
        {
          "internalType": "uint256[][]",
          "name": "",
          "type": "uint256[][]"
        }
      ],
      "stateMutability": "nonpayable",
      "type": "function"
    },
    {
      "inputs": [],
      "name": "viewalluser",
      "outputs": [
        {
          "components": [
            {
              "internalType": "string",
              "name": "username",
              "type": "string"
            },
            {
              "internalType": "string",
              "name": "password",
              "type": "string"
            },
            {
              "internalType": "string",
              "name": "addr",
              "type": "string"
            }
          ],
          "internalType": "struct evoting.User[]",
          "name": "",
          "type": "tuple[]"
        }
      ],
      "stateMutability": "view",
      "type": "function",
      "constant": true
    },
    {
      "inputs": [
        {
          "internalType": "uint256",
          "name": "_eid",
          "type": "uint256"
        }
      ],
      "name": "viewevent",
      "outputs": [
        {
          "components": [
            {
              "internalType": "uint256",
              "name": "eid",
              "type": "uint256"
            },
            {
              "internalType": "string",
              "name": "question",
              "type": "string"
            },
            {
              "internalType": "string[]",
              "name": "answers",
              "type": "string[]"
            },
            {
              "internalType": "string",
              "name": "owner",
              "type": "string"
            },
            {
              "internalType": "string[]",
              "name": "participants",
              "type": "string[]"
            },
            {
              "internalType": "string",
              "name": "state",
              "type": "string"
            }
          ],
          "internalType": "struct evoting.Event",
          "name": "",
          "type": "tuple"
        }
      ],
      "stateMutability": "view",
      "type": "function",
      "constant": true
    },
    {
      "inputs": [
        {
          "internalType": "string",
          "name": "_ps_id",
          "type": "string"
        }
      ],
      "name": "viewpartsign",
      "outputs": [
        {
          "components": [
            {
              "internalType": "uint256[][]",
              "name": "signature",
              "type": "uint256[][]"
            }
          ],
          "internalType": "struct evoting.partsign",
          "name": "",
          "type": "tuple"
        }
      ],
      "stateMutability": "view",
      "type": "function",
      "constant": true
    },
    {
      "inputs": [],
      "name": "viewallrecord",
      "outputs": [
        {
          "components": [
            {
              "internalType": "uint256",
              "name": "eid",
              "type": "uint256"
            },
            {
              "internalType": "string",
              "name": "answer",
              "type": "string"
            }
          ],
          "internalType": "struct evoting.Record[]",
          "name": "",
          "type": "tuple[]"
        }
      ],
      "stateMutability": "view",
      "type": "function",
      "constant": true
    },
    {
      "inputs": [],
      "name": "viewalleventuserringdetail",
      "outputs": [
        {
          "components": [
            {
              "internalType": "uint256",
              "name": "x",
              "type": "uint256"
            },
            {
              "internalType": "uint256",
              "name": "y",
              "type": "uint256"
            },
            {
              "internalType": "uint256",
              "name": "id",
              "type": "uint256"
            },
            {
              "internalType": "string",
              "name": "urd_id",
              "type": "string"
            }
          ],
          "internalType": "struct evoting.Userringdetail[]",
          "name": "",
          "type": "tuple[]"
        }
      ],
      "stateMutability": "view",
      "type": "function",
      "constant": true
    }
  ],
  "bytecode": "0x608060405234801561001057600080fd5b506123a8806100206000396000f3fe608060405234801561001057600080fd5b506004361061010a5760003560e01c80633f7bf1e2116100a2578063605b8bf711610071578063605b8bf7146102455780637748b5fc146102665780639eec923b14610289578063ca671a251461029e578063d11ef71a146102c157600080fd5b80633f7bf1e2146101dd57806343e81605146101f05780635a814fad146102105780635dc95b7f1461023257600080fd5b80632aaf990b116100de5780632aaf990b146101775780632e6b8a7a1461018a578063350c9248146101aa5780633a3d3df5146101bd57600080fd5b8062fb7e011461010f578063028d08b714610138578063089cdd0c1461014d578063212f6c0214610164575b600080fd5b61012261011d3660046119c2565b6102d6565b60405161012f9190611a59565b60405180910390f35b610140610398565b60405161012f9190611a73565b61015660005481565b60405190815260200161012f565b610122610172366004611afe565b6104a7565b610122610185366004611b86565b610569565b61019d610198366004611be0565b610665565b60405161012f9190611c4e565b6101226101b83660046119c2565b610a35565b6101d06101cb366004611cf3565b610a97565b60405161012f9190611dac565b6101226101eb366004611deb565b610b5f565b6102036101fe366004611f36565b610d8d565b60405161012f9190611fd7565b61022361021e366004611be0565b610f07565b60405161012f93929190611fea565b6101226102403660046119c2565b6110d9565b610258610253366004611be0565b61119c565b60405161012f92919061202d565b610279610274366004611be0565b611254565b60405161012f9493929190612046565b61029161131c565b60405161012f919061206b565b6102b16102ac366004611be0565b611528565b60405161012f94939291906120fe565b6102c9611679565b60405161012f9190612148565b604080518082019091528281526020810182815260038054600181018255600091909152825160029091027fc2575a0e9e593c00f959f8c92f12db2869c3395a3b0502d05e2516446f71f85b81019182559151606093927fc2575a0e9e593c00f959f8c92f12db2869c3395a3b0502d05e2516446f71f85c019061035a9082612237565b505060408051808201909152601781527f766f74696e67206576656e74207375636365737366756c0000000000000000006020820152949350505050565b60606004805480602002602001604051908101604052809291908181526020016000905b8282101561049e578382906000526020600020906004020160405180608001604052908160008201548152602001600182015481526020016002820154815260200160038201805461040d906121ae565b80601f0160208091040260200160405190810160405280929190818152602001828054610439906121ae565b80156104865780601f1061045b57610100808354040283529160200191610486565b820191906000526020600020905b81548152906001019060200180831161046957829003601f168201915b505050505081525050815260200190600101906103bc565b50505050905090565b604080516060818101835285825260208201859052918101839052600180548082018255600091909152815160039091027fb10e2d527612073b26eecdfd717e6a320cf44b4afac2b0732d9fcbe2b7fa0cf6019081906105079082612237565b506020820151600182019061051c9082612237565b50604082015160028201906105319082612237565b505060408051808201909152601681527518dc99585d19481d5cd95c881cdd58d8d95cdcd99d5b60521b602082015295945050505050565b60408051608081018252858152602081018581529181018481526060828101858152600480546001810182556000829052855191027f8a35acfbc15ff81a39ae7d344fd709f28e8600b4aa8c65c6b64bfe7fe36bd19b810191825595517f8a35acfbc15ff81a39ae7d344fd709f28e8600b4aa8c65c6b64bfe7fe36bd19c87015592517f8a35acfbc15ff81a39ae7d344fd709f28e8600b4aa8c65c6b64bfe7fe36bd19d8601555190937f8a35acfbc15ff81a39ae7d344fd709f28e8600b4aa8c65c6b64bfe7fe36bd19e01906106409082612237565b5050506040518060600160405280602281526020016123516022913995945050505050565b61069e6040518060c001604052806000815260200160608152602001606081526020016060815260200160608152602001606081525090565b600560008381526020019081526020016000206040518060c0016040529081600082015481526020016001820180546106d6906121ae565b80601f0160208091040260200160405190810160405280929190818152602001828054610702906121ae565b801561074f5780601f106107245761010080835404028352916020019161074f565b820191906000526020600020905b81548152906001019060200180831161073257829003601f168201915b5050505050815260200160028201805480602002602001604051908101604052809291908181526020016000905b8282101561082957838290600052602060002001805461079c906121ae565b80601f01602080910402602001604051908101604052809291908181526020018280546107c8906121ae565b80156108155780601f106107ea57610100808354040283529160200191610815565b820191906000526020600020905b8154815290600101906020018083116107f857829003601f168201915b50505050508152602001906001019061077d565b505050508152602001600382018054610841906121ae565b80601f016020809104026020016040519081016040528092919081815260200182805461086d906121ae565b80156108ba5780601f1061088f576101008083540402835291602001916108ba565b820191906000526020600020905b81548152906001019060200180831161089d57829003601f168201915b5050505050815260200160048201805480602002602001604051908101604052809291908181526020016000905b82821015610994578382906000526020600020018054610907906121ae565b80601f0160208091040260200160405190810160405280929190818152602001828054610933906121ae565b80156109805780601f1061095557610100808354040283529160200191610980565b820191906000526020600020905b81548152906001019060200180831161096357829003601f168201915b5050505050815260200190600101906108e8565b5050505081526020016005820180546109ac906121ae565b80601f01602080910402602001604051908101604052809291908181526020018280546109d8906121ae565b8015610a255780601f106109fa57610100808354040283529160200191610a25565b820191906000526020600020905b815481529060010190602001808311610a0857829003601f168201915b5050505050815250509050919050565b600082815260056020908152604082206004018054600181018255908352912060609101610a638382612237565b50506040805180820190915260158152741a9bda5b88195d995b9d081cdd58d8d95cdcd99d5b605a1b602082015292915050565b604080516020810190915260608152600682604051610ab691906122f7565b908152604080519182900360209081018320805480830285018401845291840182815290928492849160009085015b82821015610b5157600084815260209081902083018054604080518285028101850190915281815292830182828015610b3d57602002820191906000526020600020905b815481526020019060010190808311610b29575b505050505081526020019060010190610ae5565b505050915250909392505050565b6040805160c08101825260008054825260208083018781528385018790526060848101879052608085018190528551808701909652600c86526b3932b3b4b9ba3930ba34b7b760a11b9286019290925260a0840194909452600280546001810182559252825160069092027f405787fa12a823e0f2b7631cc41b3ba8828b3321ca811111fa75cd3aa3bb5ace810192835593519093849392917f405787fa12a823e0f2b7631cc41b3ba8828b3321ca811111fa75cd3aa3bb5acf90910190610c279082612237565b5060408201518051610c4391600284019160209091019061176b565b5060608201516003820190610c589082612237565b5060808201518051610c7491600484019160209091019061176b565b5060a08201516005820190610c899082612237565b505060008054808252600560205260409091209081556001019050610cae8682612237565b506000805481526005602090815260409091208551610cd59260029092019187019061176b565b50600080548152600560205260409020600301610cf28482612237565b506040518060400160405280600c81526020016b3932b3b4b9ba3930ba34b7b760a11b81525060056000805481526020019081526020016000206005019081610d3b9190612237565b50600080549080610d4b83612313565b909155505060408051808201909152601781527f437265617465206576656e74207375636365737366756c000000000000000000602082015295945050505050565b6040805160038082526080820190925260609160009190816020015b6060815260200190600190039081610da95790505090508481600081518110610dd457610dd461233a565b60200260200101819052508381600181518110610df357610df361233a565b60200260200101819052508281600281518110610e1257610e1261233a565b602002602001018190525080600687604051610e2e91906122f7565b90815260200160405180910390206000019080519060200190610e529291906117c1565b50600686604051610e6391906122f7565b908152604080519182900360209081018320805480830285018301909352828452919060009084015b82821015610ef857600084815260209081902083018054604080518285028101850190915281815292830182828015610ee457602002820191906000526020600020905b815481526020019060010190808311610ed0575b505050505081526020019060010190610e8c565b50505050915050949350505050565b60018181548110610f1757600080fd5b9060005260206000209060030201600091509050806000018054610f3a906121ae565b80601f0160208091040260200160405190810160405280929190818152602001828054610f66906121ae565b8015610fb35780601f10610f8857610100808354040283529160200191610fb3565b820191906000526020600020905b815481529060010190602001808311610f9657829003601f168201915b505050505090806001018054610fc8906121ae565b80601f0160208091040260200160405190810160405280929190818152602001828054610ff4906121ae565b80156110415780601f1061101657610100808354040283529160200191611041565b820191906000526020600020905b81548152906001019060200180831161102457829003601f168201915b505050505090806002018054611056906121ae565b80601f0160208091040260200160405190810160405280929190818152602001828054611082906121ae565b80156110cf5780601f106110a4576101008083540402835291602001916110cf565b820191906000526020600020905b8154815290600101906020018083116110b257829003601f168201915b5050505050905083565b6000828152600560208190526040909120606091016110f88382612237565b506000838152600560208190526040909120018054611116906121ae565b80601f0160208091040260200160405190810160405280929190818152602001828054611142906121ae565b801561118f5780601f106111645761010080835404028352916020019161118f565b820191906000526020600020905b81548152906001019060200180831161117257829003601f168201915b5050505050905092915050565b600381815481106111ac57600080fd5b600091825260209091206002909102018054600182018054919350906111d1906121ae565b80601f01602080910402602001604051908101604052809291908181526020018280546111fd906121ae565b801561124a5780601f1061121f5761010080835404028352916020019161124a565b820191906000526020600020905b81548152906001019060200180831161122d57829003601f168201915b5050505050905082565b6004818154811061126457600080fd5b9060005260206000209060040201600091509050806000015490806001015490806002015490806003018054611299906121ae565b80601f01602080910402602001604051908101604052809291908181526020018280546112c5906121ae565b80156113125780601f106112e757610100808354040283529160200191611312565b820191906000526020600020905b8154815290600101906020018083116112f557829003601f168201915b5050505050905084565b60606001805480602002602001604051908101604052809291908181526020016000905b8282101561049e5783829060005260206000209060030201604051806060016040529081600082018054611373906121ae565b80601f016020809104026020016040519081016040528092919081815260200182805461139f906121ae565b80156113ec5780601f106113c1576101008083540402835291602001916113ec565b820191906000526020600020905b8154815290600101906020018083116113cf57829003601f168201915b50505050508152602001600182018054611405906121ae565b80601f0160208091040260200160405190810160405280929190818152602001828054611431906121ae565b801561147e5780601f106114535761010080835404028352916020019161147e565b820191906000526020600020905b81548152906001019060200180831161146157829003601f168201915b50505050508152602001600282018054611497906121ae565b80601f01602080910402602001604051908101604052809291908181526020018280546114c3906121ae565b80156115105780601f106114e557610100808354040283529160200191611510565b820191906000526020600020905b8154815290600101906020018083116114f357829003601f168201915b50505050508152505081526020019060010190611340565b6002818154811061153857600080fd5b6000918252602090912060069091020180546001820180549193509061155d906121ae565b80601f0160208091040260200160405190810160405280929190818152602001828054611589906121ae565b80156115d65780601f106115ab576101008083540402835291602001916115d6565b820191906000526020600020905b8154815290600101906020018083116115b957829003601f168201915b5050505050908060030180546115eb906121ae565b80601f0160208091040260200160405190810160405280929190818152602001828054611617906121ae565b80156116645780601f1061163957610100808354040283529160200191611664565b820191906000526020600020905b81548152906001019060200180831161164757829003601f168201915b505050505090806005018054611299906121ae565b60606003805480602002602001604051908101604052809291908181526020016000905b8282101561049e5783829060005260206000209060020201604051806040016040529081600082015481526020016001820180546116da906121ae565b80601f0160208091040260200160405190810160405280929190818152602001828054611706906121ae565b80156117535780601f1061172857610100808354040283529160200191611753565b820191906000526020600020905b81548152906001019060200180831161173657829003601f168201915b5050505050815250508152602001906001019061169d565b8280548282559060005260206000209081019282156117b1579160200282015b828111156117b157825182906117a19082612237565b509160200191906001019061178b565b506117bd92915061181a565b5090565b82805482825590600052602060002090810192821561180e579160200282015b8281111561180e57825180516117fe918491602090910190611837565b50916020019190600101906117e1565b506117bd92915061187e565b808211156117bd57600061182e828261189b565b5060010161181a565b828054828255906000526020600020908101928215611872579160200282015b82811115611872578251825591602001919060010190611857565b506117bd9291506118d8565b808211156117bd57600061189282826118ed565b5060010161187e565b5080546118a7906121ae565b6000825580601f106118b7575050565b601f0160209004906000526020600020908101906118d591906118d8565b50565b5b808211156117bd57600081556001016118d9565b50805460008255906000526020600020908101906118d591906118d8565b634e487b7160e01b600052604160045260246000fd5b604051601f8201601f1916810167ffffffffffffffff8111828210171561194a5761194a61190b565b604052919050565b600082601f83011261196357600080fd5b813567ffffffffffffffff81111561197d5761197d61190b565b611990601f8201601f1916602001611921565b8181528460208386010111156119a557600080fd5b816020850160208301376000918101602001919091529392505050565b600080604083850312156119d557600080fd5b82359150602083013567ffffffffffffffff8111156119f357600080fd5b6119ff85828601611952565b9150509250929050565b60005b83811015611a24578181015183820152602001611a0c565b50506000910152565b60008151808452611a45816020860160208601611a09565b601f01601f19169290920160200192915050565b602081526000611a6c6020830184611a2d565b9392505050565b60006020808301818452808551808352604092508286019150828160051b87010184880160005b83811015611af057888303603f1901855281518051845287810151888501528681015187850152606090810151608091850182905290611adc81860183611a2d565b968901969450505090860190600101611a9a565b509098975050505050505050565b600080600060608486031215611b1357600080fd5b833567ffffffffffffffff80821115611b2b57600080fd5b611b3787838801611952565b94506020860135915080821115611b4d57600080fd5b611b5987838801611952565b93506040860135915080821115611b6f57600080fd5b50611b7c86828701611952565b9150509250925092565b60008060008060808587031215611b9c57600080fd5b843593506020850135925060408501359150606085013567ffffffffffffffff811115611bc857600080fd5b611bd487828801611952565b91505092959194509250565b600060208284031215611bf257600080fd5b5035919050565b600081518084526020808501808196508360051b8101915082860160005b85811015611c41578284038952611c2f848351611a2d565b98850198935090840190600101611c17565b5091979650505050505050565b60208152815160208201526000602083015160c06040840152611c7460e0840182611a2d565b90506040840151601f1980858403016060860152611c928383611bf9565b92506060860151915080858403016080860152611caf8383611a2d565b925060808601519150808584030160a0860152611ccc8383611bf9565b925060a08601519150808584030160c086015250611cea8282611a2d565b95945050505050565b600060208284031215611d0557600080fd5b813567ffffffffffffffff811115611d1c57600080fd5b611d2884828501611952565b949350505050565b600081518084526020808501808196508360051b810191508286016000805b86811015611d9e578385038a52825180518087529087019087870190845b81811015611d8957835183529289019291890191600101611d6d565b50509a87019a95505091850191600101611d4f565b509298975050505050505050565b6020815260008251602080840152611d286040840182611d30565b600067ffffffffffffffff821115611de157611de161190b565b5060051b60200190565b600080600060608486031215611e0057600080fd5b833567ffffffffffffffff80821115611e1857600080fd5b611e2487838801611952565b9450602091508186013581811115611e3b57600080fd5b8601601f81018813611e4c57600080fd5b8035611e5f611e5a82611dc7565b611921565b81815260059190911b8201840190848101908a831115611e7e57600080fd5b8584015b83811015611eb657803586811115611e9a5760008081fd5b611ea88d8983890101611952565b845250918601918601611e82565b5096505050506040860135915080821115611b6f57600080fd5b600082601f830112611ee157600080fd5b81356020611ef1611e5a83611dc7565b82815260059290921b84018101918181019086841115611f1057600080fd5b8286015b84811015611f2b5780358352918301918301611f14565b509695505050505050565b60008060008060808587031215611f4c57600080fd5b843567ffffffffffffffff80821115611f6457600080fd5b611f7088838901611952565b95506020870135915080821115611f8657600080fd5b611f9288838901611ed0565b94506040870135915080821115611fa857600080fd5b611fb488838901611ed0565b93506060870135915080821115611fca57600080fd5b50611bd487828801611ed0565b602081526000611a6c6020830184611d30565b606081526000611ffd6060830186611a2d565b828103602084015261200f8186611a2d565b905082810360408401526120238185611a2d565b9695505050505050565b828152604060208201526000611d286040830184611a2d565b8481528360208201528260408201526080606082015260006120236080830184611a2d565b60006020808301818452808551808352604092508286019150828160051b87010184880160005b83811015611af057603f198984030185528151606081518186526120b882870182611a2d565b915050888201518582038a8701526120d08282611a2d565b915050878201519150848103888601526120ea8183611a2d565b968901969450505090860190600101612092565b8481526080602082015260006121176080830186611a2d565b82810360408401526121298186611a2d565b9050828103606084015261213d8185611a2d565b979650505050505050565b60006020808301818452808551808352604092508286019150828160051b87010184880160005b83811015611af057888303603f1901855281518051845287015187840187905261219b87850182611a2d565b958801959350509086019060010161216f565b600181811c908216806121c257607f821691505b6020821081036121e257634e487b7160e01b600052602260045260246000fd5b50919050565b601f82111561223257600081815260208120601f850160051c8101602086101561220f5750805b601f850160051c820191505b8181101561222e5782815560010161221b565b5050505b505050565b815167ffffffffffffffff8111156122515761225161190b565b6122658161225f84546121ae565b846121e8565b602080601f83116001811461229a57600084156122825750858301515b600019600386901b1c1916600185901b17855561222e565b600085815260208120601f198616915b828110156122c9578886015182559484019460019091019084016122aa565b50858210156122e75787850151600019600388901b60f8161c191681555b5050505050600190811b01905550565b60008251612309818460208701611a09565b9190910192915050565b60006001820161233357634e487b7160e01b600052601160045260246000fd5b5060010190565b634e487b7160e01b600052603260045260246000fdfe43726561746520757365722072696e672064657461696c207375636365737366756ca2646970667358221220a0a73619a12b92c17f044fc689d286618b19605fb2c4788a029ad1c107e35c6164736f6c63430008110033",
  "immutableReferences": {},
  "source": "// SPDX-License-Identifier: MIT\r\npragma solidity ^0.8.17;\r\n\r\ncontract evoting {\r\n\r\n    uint256 public eventId;\r\n\r\n    struct User {\r\n        string username;\r\n        string password;\r\n        string addr;\r\n    }\r\n\r\n    struct Event {\r\n        uint256 eid;\r\n        string question;\r\n        string[] answers;\r\n        string owner;\r\n        string[] participants;\r\n        string state;\r\n    }\r\n\r\n    struct Record {\r\n        uint256 eid;\r\n        string answer;\r\n    }\r\n    \r\n    struct Userringdetail {\r\n        uint256 x;\r\n        uint256 y;\r\n        uint256 id;\r\n        string urd_id;\r\n    }\r\n\r\n    struct partsign {\r\n        uint256[][] signature;\r\n    }\r\n\r\n    User[] public alluser;\r\n    Event[] public allevent;\r\n    Record[] public allrecord;\r\n    Userringdetail[] public alluserringdetail;\r\n\r\n    mapping(uint256 => Event) votingevent;\r\n    mapping(string => partsign) eventpartsign;\r\n\r\n    function createuser(string memory _username, string memory _password, string memory _addr) public returns (string memory) {\r\n        alluser.push(User(_username, _password, _addr));\r\n        return \"create user successful\";\r\n    }\r\n\r\n    function createevent(\r\n        string memory _question,\r\n        string[] memory _answers,\r\n        string memory _owner\r\n    ) public returns (string memory) {\r\n        string[] memory _a;\r\n\r\n        allevent.push(\r\n            Event(eventId, _question, _answers, _owner, _a, \"registration\")\r\n        );\r\n        votingevent[eventId].eid = eventId;\r\n        votingevent[eventId].question = _question;\r\n        votingevent[eventId].answers = _answers;\r\n        votingevent[eventId].owner = _owner;\r\n        votingevent[eventId].state = \"registration\";\r\n        eventId++;\r\n        return \"Create event successful\";\r\n    }\r\n\r\n    function changeeventstate(uint256 _eid, string memory state)\r\n        public\r\n        returns (string memory)\r\n    {\r\n        votingevent[_eid].state = state;\r\n        return votingevent[_eid].state;\r\n    }\r\n\r\n    function joinevent(uint256 _eid, string memory _name)\r\n        public\r\n        returns (string memory)\r\n    {\r\n        votingevent[_eid].participants.push(_name);\r\n        return \"join event successful\";\r\n    }\r\n\r\n    function voting(uint256 _eid, string memory _answer)\r\n        public\r\n        returns (string memory)\r\n    {\r\n        allrecord.push(Record(_eid, _answer));\r\n        return \"voting event successful\";\r\n    }\r\n\r\n    function createuserringdetail(\r\n        uint256 _x,\r\n        uint256 _y,\r\n        uint256 _id,\r\n        string memory _urd_id // eid?participants?\r\n    ) public returns (string memory) {\r\n\r\n        alluserringdetail.push(Userringdetail(_x, _y, _id, _urd_id));\r\n        return \"Create user ring detail successful\";\r\n    }\r\n\r\n    function addpartsign(string memory _ps_id, uint256[] memory _a0, uint256[] memory _a1, uint256[] memory _a2) public returns (uint256[][] memory) {\r\n        uint256[][] memory nestedArray = new uint256[][](3);\r\n        nestedArray[0] = _a0;\r\n        nestedArray[1] = _a1;\r\n        nestedArray[2] = _a2;\r\n\r\n        eventpartsign[_ps_id].signature = nestedArray;\r\n        return eventpartsign[_ps_id].signature;\r\n    }\r\n\r\n    function viewalluser() public view returns (User[] memory) {\r\n        return alluser;\r\n    }\r\n\r\n    function viewevent(uint256 _eid) public view returns (Event memory) {\r\n        return (votingevent[_eid]);\r\n    }\r\n\r\n    function viewpartsign(string memory _ps_id) public view returns (partsign memory) {\r\n        return (eventpartsign[_ps_id]);\r\n    }\r\n\r\n    function viewallrecord() public view returns (Record[] memory) {\r\n        return (allrecord);\r\n    }\r\n\r\n    function viewalleventuserringdetail() public view returns (Userringdetail[] memory) {\r\n        return (alluserringdetail);\r\n    }\r\n}\r\n",
  "sourcePath": "D:\\AlexM\\polyu IS\\COMP4913\\evoting\\contracts\\evoting.sol",
  "compiler": {
    "name": "solc",
    "version": "0.8.17+commit.8df45f5f.Emscripten.clang"
  },
  "schemaVersion": "3.4.11",
  "updatedAt": "2023-04-07T22:13:45.793Z",
  "networkType": "ethereum",
  "devdoc": {
    "kind": "dev",
    "methods": {},
    "version": 1
  },
  "userdoc": {
    "kind": "user",
    "methods": {},
    "version": 1
  }
}