{
  "contractName": "evoting",
  "abi": [
    {
      "inputs": [
        {
          "internalType": "uint256",
          "name": "",
          "type": "uint256"
        }
      ],
      "name": "allevent",
      "outputs": [
        {
          "internalType": "uint256",
          "name": "eid",
          "type": "uint256"
        },
        {
          "internalType": "string",
          "name": "question",
          "type": "string"
        },
        {
          "internalType": "string",
          "name": "owner",
          "type": "string"
        },
        {
          "internalType": "string",
          "name": "state",
          "type": "string"
        }
      ],
      "stateMutability": "view",
      "type": "function",
      "constant": true
    },
    {
      "inputs": [
        {
          "internalType": "uint256",
          "name": "",
          "type": "uint256"
        }
      ],
      "name": "allrecord",
      "outputs": [
        {
          "internalType": "uint256",
          "name": "rid",
          "type": "uint256"
        },
        {
          "internalType": "uint256",
          "name": "eid",
          "type": "uint256"
        },
        {
          "internalType": "string",
          "name": "answer",
          "type": "string"
        }
      ],
      "stateMutability": "view",
      "type": "function",
      "constant": true
    },
    {
      "inputs": [
        {
          "internalType": "uint256",
          "name": "",
          "type": "uint256"
        }
      ],
      "name": "alluserringdetail",
      "outputs": [
        {
          "internalType": "uint256",
          "name": "x",
          "type": "uint256"
        },
        {
          "internalType": "uint256",
          "name": "y",
          "type": "uint256"
        },
        {
          "internalType": "uint256",
          "name": "id",
          "type": "uint256"
        },
        {
          "internalType": "string",
          "name": "urd_id",
          "type": "string"
        }
      ],
      "stateMutability": "view",
      "type": "function",
      "constant": true
    },
    {
      "inputs": [],
      "name": "eventId",
      "outputs": [
        {
          "internalType": "uint256",
          "name": "",
          "type": "uint256"
        }
      ],
      "stateMutability": "view",
      "type": "function",
      "constant": true
    },
    {
      "inputs": [],
      "name": "recordId",
      "outputs": [
        {
          "internalType": "uint256",
          "name": "",
          "type": "uint256"
        }
      ],
      "stateMutability": "view",
      "type": "function",
      "constant": true
    },
    {
      "inputs": [
        {
          "internalType": "string",
          "name": "_question",
          "type": "string"
        },
        {
          "internalType": "string[]",
          "name": "_answers",
          "type": "string[]"
        },
        {
          "internalType": "string",
          "name": "_owner",
          "type": "string"
        }
      ],
      "name": "createevent",
      "outputs": [
        {
          "internalType": "string",
          "name": "",
          "type": "string"
        }
      ],
      "stateMutability": "nonpayable",
      "type": "function"
    },
    {
      "inputs": [
        {
          "internalType": "uint256",
          "name": "_eid",
          "type": "uint256"
        },
        {
          "internalType": "string",
          "name": "state",
          "type": "string"
        }
      ],
      "name": "changeeventstate",
      "outputs": [
        {
          "internalType": "string",
          "name": "",
          "type": "string"
        }
      ],
      "stateMutability": "nonpayable",
      "type": "function"
    },
    {
      "inputs": [
        {
          "internalType": "uint256",
          "name": "_eid",
          "type": "uint256"
        },
        {
          "internalType": "string",
          "name": "_name",
          "type": "string"
        }
      ],
      "name": "joinevent",
      "outputs": [
        {
          "internalType": "string",
          "name": "",
          "type": "string"
        }
      ],
      "stateMutability": "nonpayable",
      "type": "function"
    },
    {
      "inputs": [
        {
          "internalType": "uint256",
          "name": "_eid",
          "type": "uint256"
        },
        {
          "internalType": "string",
          "name": "_answer",
          "type": "string"
        }
      ],
      "name": "voting",
      "outputs": [
        {
          "internalType": "string",
          "name": "",
          "type": "string"
        }
      ],
      "stateMutability": "nonpayable",
      "type": "function"
    },
    {
      "inputs": [
        {
          "internalType": "uint256",
          "name": "_x",
          "type": "uint256"
        },
        {
          "internalType": "uint256",
          "name": "_y",
          "type": "uint256"
        },
        {
          "internalType": "uint256",
          "name": "_id",
          "type": "uint256"
        },
        {
          "internalType": "string",
          "name": "_urd_id",
          "type": "string"
        }
      ],
      "name": "createuserringdetail",
      "outputs": [
        {
          "internalType": "string",
          "name": "",
          "type": "string"
        }
      ],
      "stateMutability": "nonpayable",
      "type": "function"
    },
    {
      "inputs": [
        {
          "internalType": "string",
          "name": "_ps_id",
          "type": "string"
        },
        {
          "internalType": "uint256[]",
          "name": "_a0",
          "type": "uint256[]"
        },
        {
          "internalType": "uint256[]",
          "name": "_a1",
          "type": "uint256[]"
        },
        {
          "internalType": "uint256[]",
          "name": "_a2",
          "type": "uint256[]"
        }
      ],
      "name": "addpartsign",
      "outputs": [
        {
          "internalType": "uint256[][]",
          "name": "",
          "type": "uint256[][]"
        }
      ],
      "stateMutability": "nonpayable",
      "type": "function"
    },
    {
      "inputs": [
        {
          "internalType": "uint256",
          "name": "_eid",
          "type": "uint256"
        }
      ],
      "name": "viewevent",
      "outputs": [
        {
          "components": [
            {
              "internalType": "uint256",
              "name": "eid",
              "type": "uint256"
            },
            {
              "internalType": "string",
              "name": "question",
              "type": "string"
            },
            {
              "internalType": "string[]",
              "name": "answers",
              "type": "string[]"
            },
            {
              "internalType": "string",
              "name": "owner",
              "type": "string"
            },
            {
              "internalType": "string[]",
              "name": "participants",
              "type": "string[]"
            },
            {
              "internalType": "string",
              "name": "state",
              "type": "string"
            }
          ],
          "internalType": "struct evoting.Event",
          "name": "",
          "type": "tuple"
        }
      ],
      "stateMutability": "view",
      "type": "function",
      "constant": true
    },
    {
      "inputs": [
        {
          "internalType": "string",
          "name": "_ps_id",
          "type": "string"
        }
      ],
      "name": "viewpartsign",
      "outputs": [
        {
          "components": [
            {
              "internalType": "uint256[][]",
              "name": "signature",
              "type": "uint256[][]"
            }
          ],
          "internalType": "struct evoting.partsign",
          "name": "",
          "type": "tuple"
        }
      ],
      "stateMutability": "view",
      "type": "function",
      "constant": true
    },
    {
      "inputs": [],
      "name": "viewallevent",
      "outputs": [
        {
          "components": [
            {
              "internalType": "uint256",
              "name": "eid",
              "type": "uint256"
            },
            {
              "internalType": "string",
              "name": "question",
              "type": "string"
            },
            {
              "internalType": "string[]",
              "name": "answers",
              "type": "string[]"
            },
            {
              "internalType": "string",
              "name": "owner",
              "type": "string"
            },
            {
              "internalType": "string[]",
              "name": "participants",
              "type": "string[]"
            },
            {
              "internalType": "string",
              "name": "state",
              "type": "string"
            }
          ],
          "internalType": "struct evoting.Event[]",
          "name": "",
          "type": "tuple[]"
        }
      ],
      "stateMutability": "nonpayable",
      "type": "function"
    },
    {
      "inputs": [],
      "name": "viewallrecord",
      "outputs": [
        {
          "components": [
            {
              "internalType": "uint256",
              "name": "rid",
              "type": "uint256"
            },
            {
              "internalType": "uint256",
              "name": "eid",
              "type": "uint256"
            },
            {
              "internalType": "string",
              "name": "answer",
              "type": "string"
            }
          ],
          "internalType": "struct evoting.Record[]",
          "name": "",
          "type": "tuple[]"
        }
      ],
      "stateMutability": "view",
      "type": "function",
      "constant": true
    },
    {
      "inputs": [],
      "name": "viewalleventuserringdetail",
      "outputs": [
        {
          "components": [
            {
              "internalType": "uint256",
              "name": "x",
              "type": "uint256"
            },
            {
              "internalType": "uint256",
              "name": "y",
              "type": "uint256"
            },
            {
              "internalType": "uint256",
              "name": "id",
              "type": "uint256"
            },
            {
              "internalType": "string",
              "name": "urd_id",
              "type": "string"
            }
          ],
          "internalType": "struct evoting.Userringdetail[]",
          "name": "",
          "type": "tuple[]"
        }
      ],
      "stateMutability": "view",
      "type": "function",
      "constant": true
    }
  ],
  "bytecode": "0x608060405234801561001057600080fd5b50612823806100206000396000f3fe608060405234801561001057600080fd5b50600436106100ff5760003560e01c80633f7bf1e2116100975780637748b5fc116100665780637748b5fc1461023c578063ca671a251461025f578063d11ef71a14610282578063f7dfe22b1461029757600080fd5b80633f7bf1e2146101d457806343e81605146101e75780635dc95b7f14610207578063605b8bf71461021a57600080fd5b80632aaf990b116100d35780632aaf990b1461016e5780632e6b8a7a14610181578063350c9248146101a15780633a3d3df5146101b457600080fd5b8062fb7e0114610104578063028d08b71461012d578063089cdd0c1461014257806313d9e8ee14610159575b600080fd5b610117610112366004611f0a565b6102a0565b6040516101249190611fa1565b60405180910390f35b6101356103cd565b6040516101249190611fbb565b61014b60005481565b604051908152602001610124565b6101616104dc565b604051610124919061212a565b61011761017c36600461218c565b610d43565b61019461018f3660046121e6565b610edd565b60405161012491906121ff565b6101176101af366004611f0a565b6112ad565b6101c76101c2366004612212565b61130f565b60405161012491906122cb565b6101176101e236600461230a565b6113d7565b6101fa6101f536600461246c565b611605565b604051610124919061250d565b610117610215366004611f0a565b61177f565b61022d6102283660046121e6565b611842565b60405161012493929190612520565b61024f61024a3660046121e6565b611904565b604051610124949392919061253f565b61027261026d3660046121e6565b6119cc565b604051610124949392919061256e565b61028a611b1d565b60405161012491906125b8565b61014b60015481565b6040805160608181018352600180548352602083018681529383018581526003805492830181556000819052845192027fc2575a0e9e593c00f959f8c92f12db2869c3395a3b0502d05e2516446f71f85b810192835594517fc2575a0e9e593c00f959f8c92f12db2869c3395a3b0502d05e2516446f71f85c86015551919390917fc2575a0e9e593c00f959f8c92f12db2869c3395a3b0502d05e2516446f71f85d9091019061035090826126b2565b5050600180546000868152600660205260409020908155908101859055600201905061037c83826126b2565b506001805490600061038d83612772565b909155505060408051808201909152601781527f766f74696e67206576656e74207375636365737366756c00000000000000000060208201529392505050565b60606004805480602002602001604051908101604052809291908181526020016000905b828210156104d3578382906000526020600020906004020160405180608001604052908160008201548152602001600182015481526020016002820154815260200160038201805461044290612629565b80601f016020809104026020016040519081016040528092919081815260200182805461046e90612629565b80156104bb5780601f10610490576101008083540402835291602001916104bb565b820191906000526020600020905b81548152906001019060200180831161049e57829003601f168201915b505050505081525050815260200190600101906103f1565b50505050905090565b60606104ea60026000611c19565b60005b60005481101561097c576040805160c0810182526000838152600560208181529382208054845291859052835260010180546002938301919061052f90612629565b80601f016020809104026020016040519081016040528092919081815260200182805461055b90612629565b80156105a85780601f1061057d576101008083540402835291602001916105a8565b820191906000526020600020905b81548152906001019060200180831161058b57829003601f168201915b5050505050815260200160056000858152602001908152602001600020600201805480602002602001604051908101604052809291908181526020016000905b8282101561069457838290600052602060002001805461060790612629565b80601f016020809104026020016040519081016040528092919081815260200182805461063390612629565b80156106805780601f1061065557610100808354040283529160200191610680565b820191906000526020600020905b81548152906001019060200180831161066357829003601f168201915b5050505050815260200190600101906105e8565b5050505081526020016005600085815260200190815260200160002060030180546106be90612629565b80601f01602080910402602001604051908101604052809291908181526020018280546106ea90612629565b80156107375780601f1061070c57610100808354040283529160200191610737565b820191906000526020600020905b81548152906001019060200180831161071a57829003601f168201915b5050505050815260200160056000858152602001908152602001600020600401805480602002602001604051908101604052809291908181526020016000905b8282101561082357838290600052602060002001805461079690612629565b80601f01602080910402602001604051908101604052809291908181526020018280546107c290612629565b801561080f5780601f106107e45761010080835404028352916020019161080f565b820191906000526020600020905b8154815290600101906020018083116107f257829003601f168201915b505050505081526020019060010190610777565b50505050815260200160056000858152602001908152602001600020600501805461084d90612629565b80601f016020809104026020016040519081016040528092919081815260200182805461087990612629565b80156108c65780601f1061089b576101008083540402835291602001916108c6565b820191906000526020600020905b8154815290600101906020018083116108a957829003601f168201915b5050509190925250508154600181810184556000938452602093849020835160069093020191825592820151919290919082019061090490826126b2565b5060408201518051610920916002840191602090910190611c3d565b506060820151600382019061093590826126b2565b5060808201518051610951916004840191602090910190611c3d565b5060a0820151600582019061096690826126b2565b505050808061097490612772565b9150506104ed565b506002805480602002602001604051908101604052809291908181526020016000905b828210156104d357838290600052602060002090600602016040518060c0016040529081600082015481526020016001820180546109dc90612629565b80601f0160208091040260200160405190810160405280929190818152602001828054610a0890612629565b8015610a555780601f10610a2a57610100808354040283529160200191610a55565b820191906000526020600020905b815481529060010190602001808311610a3857829003601f168201915b5050505050815260200160028201805480602002602001604051908101604052809291908181526020016000905b82821015610b2f578382906000526020600020018054610aa290612629565b80601f0160208091040260200160405190810160405280929190818152602001828054610ace90612629565b8015610b1b5780601f10610af057610100808354040283529160200191610b1b565b820191906000526020600020905b815481529060010190602001808311610afe57829003601f168201915b505050505081526020019060010190610a83565b505050508152602001600382018054610b4790612629565b80601f0160208091040260200160405190810160405280929190818152602001828054610b7390612629565b8015610bc05780601f10610b9557610100808354040283529160200191610bc0565b820191906000526020600020905b815481529060010190602001808311610ba357829003601f168201915b5050505050815260200160048201805480602002602001604051908101604052809291908181526020016000905b82821015610c9a578382906000526020600020018054610c0d90612629565b80601f0160208091040260200160405190810160405280929190818152602001828054610c3990612629565b8015610c865780601f10610c5b57610100808354040283529160200191610c86565b820191906000526020600020905b815481529060010190602001808311610c6957829003601f168201915b505050505081526020019060010190610bee565b505050508152602001600582018054610cb290612629565b80601f0160208091040260200160405190810160405280929190818152602001828054610cde90612629565b8015610d2b5780601f10610d0057610100808354040283529160200191610d2b565b820191906000526020600020905b815481529060010190602001808311610d0e57829003601f168201915b5050505050815250508152602001906001019061099f565b60408051608081018252858152602081018581529181018481526060828101858152600480546001810182556000829052855191027f8a35acfbc15ff81a39ae7d344fd709f28e8600b4aa8c65c6b64bfe7fe36bd19b810191825595517f8a35acfbc15ff81a39ae7d344fd709f28e8600b4aa8c65c6b64bfe7fe36bd19c87015592517f8a35acfbc15ff81a39ae7d344fd709f28e8600b4aa8c65c6b64bfe7fe36bd19d8601555190937f8a35acfbc15ff81a39ae7d344fd709f28e8600b4aa8c65c6b64bfe7fe36bd19e0190610e1a90826126b2565b50505084600783604051610e2e9190612799565b908152604051908190036020018120919091558490600790610e51908590612799565b90815260200160405180910390206001018190555082600783604051610e779190612799565b90815260200160405180910390206002018190555081600783604051610e9d9190612799565b90815260200160405180910390206003019081610eba91906126b2565b506040518060600160405280602281526020016127cc6022913995945050505050565b610f166040518060c001604052806000815260200160608152602001606081526020016060815260200160608152602001606081525090565b600560008381526020019081526020016000206040518060c001604052908160008201548152602001600182018054610f4e90612629565b80601f0160208091040260200160405190810160405280929190818152602001828054610f7a90612629565b8015610fc75780601f10610f9c57610100808354040283529160200191610fc7565b820191906000526020600020905b815481529060010190602001808311610faa57829003601f168201915b5050505050815260200160028201805480602002602001604051908101604052809291908181526020016000905b828210156110a157838290600052602060002001805461101490612629565b80601f016020809104026020016040519081016040528092919081815260200182805461104090612629565b801561108d5780601f106110625761010080835404028352916020019161108d565b820191906000526020600020905b81548152906001019060200180831161107057829003601f168201915b505050505081526020019060010190610ff5565b5050505081526020016003820180546110b990612629565b80601f01602080910402602001604051908101604052809291908181526020018280546110e590612629565b80156111325780601f1061110757610100808354040283529160200191611132565b820191906000526020600020905b81548152906001019060200180831161111557829003601f168201915b5050505050815260200160048201805480602002602001604051908101604052809291908181526020016000905b8282101561120c57838290600052602060002001805461117f90612629565b80601f01602080910402602001604051908101604052809291908181526020018280546111ab90612629565b80156111f85780601f106111cd576101008083540402835291602001916111f8565b820191906000526020600020905b8154815290600101906020018083116111db57829003601f168201915b505050505081526020019060010190611160565b50505050815260200160058201805461122490612629565b80601f016020809104026020016040519081016040528092919081815260200182805461125090612629565b801561129d5780601f106112725761010080835404028352916020019161129d565b820191906000526020600020905b81548152906001019060200180831161128057829003601f168201915b5050505050815250509050919050565b6000828152600560209081526040822060040180546001810182559083529120606091016112db83826126b2565b50506040805180820190915260158152741a9bda5b88195d995b9d081cdd58d8d95cdcd99d5b605a1b602082015292915050565b60408051602081019091526060815260088260405161132e9190612799565b908152604080519182900360209081018320805480830285018401845291840182815290928492849160009085015b828210156113c9576000848152602090819020830180546040805182850281018501909152818152928301828280156113b557602002820191906000526020600020905b8154815260200190600101908083116113a1575b50505050508152602001906001019061135d565b505050915250909392505050565b6040805160c08101825260008054825260208083018781528385018790526060848101879052608085018190528551808701909652600c86526b3932b3b4b9ba3930ba34b7b760a11b9286019290925260a0840194909452600280546001810182559252825160069092027f405787fa12a823e0f2b7631cc41b3ba8828b3321ca811111fa75cd3aa3bb5ace810192835593519093849392917f405787fa12a823e0f2b7631cc41b3ba8828b3321ca811111fa75cd3aa3bb5acf9091019061149f90826126b2565b50604082015180516114bb916002840191602090910190611c3d565b50606082015160038201906114d090826126b2565b50608082015180516114ec916004840191602090910190611c3d565b5060a0820151600582019061150190826126b2565b50506000805480825260056020526040909120908155600101905061152686826126b2565b50600080548152600560209081526040909120855161154d92600290920191870190611c3d565b5060008054815260056020526040902060030161156a84826126b2565b506040518060400160405280600c81526020016b3932b3b4b9ba3930ba34b7b760a11b815250600560008054815260200190815260200160002060050190816115b391906126b2565b506000805490806115c383612772565b909155505060408051808201909152601781527f437265617465206576656e74207375636365737366756c000000000000000000602082015295945050505050565b6040805160038082526080820190925260609160009190816020015b6060815260200190600190039081611621579050509050848160008151811061164c5761164c6127b5565b6020026020010181905250838160018151811061166b5761166b6127b5565b6020026020010181905250828160028151811061168a5761168a6127b5565b6020026020010181905250806008876040516116a69190612799565b908152602001604051809103902060000190805190602001906116ca929190611c93565b506008866040516116db9190612799565b908152604080519182900360209081018320805480830285018301909352828452919060009084015b828210156117705760008481526020908190208301805460408051828502810185019091528181529283018282801561175c57602002820191906000526020600020905b815481526020019060010190808311611748575b505050505081526020019060010190611704565b50505050915050949350505050565b60008281526005602081905260409091206060910161179e83826126b2565b5060008381526005602081905260409091200180546117bc90612629565b80601f01602080910402602001604051908101604052809291908181526020018280546117e890612629565b80156118355780601f1061180a57610100808354040283529160200191611835565b820191906000526020600020905b81548152906001019060200180831161181857829003601f168201915b5050505050905092915050565b6003818154811061185257600080fd5b906000526020600020906003020160009150905080600001549080600101549080600201805461188190612629565b80601f01602080910402602001604051908101604052809291908181526020018280546118ad90612629565b80156118fa5780601f106118cf576101008083540402835291602001916118fa565b820191906000526020600020905b8154815290600101906020018083116118dd57829003601f168201915b5050505050905083565b6004818154811061191457600080fd5b906000526020600020906004020160009150905080600001549080600101549080600201549080600301805461194990612629565b80601f016020809104026020016040519081016040528092919081815260200182805461197590612629565b80156119c25780601f10611997576101008083540402835291602001916119c2565b820191906000526020600020905b8154815290600101906020018083116119a557829003601f168201915b5050505050905084565b600281815481106119dc57600080fd5b60009182526020909120600690910201805460018201805491935090611a0190612629565b80601f0160208091040260200160405190810160405280929190818152602001828054611a2d90612629565b8015611a7a5780601f10611a4f57610100808354040283529160200191611a7a565b820191906000526020600020905b815481529060010190602001808311611a5d57829003601f168201915b505050505090806003018054611a8f90612629565b80601f0160208091040260200160405190810160405280929190818152602001828054611abb90612629565b8015611b085780601f10611add57610100808354040283529160200191611b08565b820191906000526020600020905b815481529060010190602001808311611aeb57829003601f168201915b50505050509080600501805461194990612629565b60606003805480602002602001604051908101604052809291908181526020016000905b828210156104d357838290600052602060002090600302016040518060600160405290816000820154815260200160018201548152602001600282018054611b8890612629565b80601f0160208091040260200160405190810160405280929190818152602001828054611bb490612629565b8015611c015780601f10611bd657610100808354040283529160200191611c01565b820191906000526020600020905b815481529060010190602001808311611be457829003601f168201915b50505050508152505081526020019060010190611b41565b5080546000825560060290600052602060002090810190611c3a9190611cec565b50565b828054828255906000526020600020908101928215611c83579160200282015b82811115611c835782518290611c7390826126b2565b5091602001919060010190611c5d565b50611c8f929150611d47565b5090565b828054828255906000526020600020908101928215611ce0579160200282015b82811115611ce05782518051611cd0918491602090910190611d64565b5091602001919060010190611cb3565b50611c8f929150611dab565b80821115611c8f576000808255611d066001830182611dc8565b611d14600283016000611e02565b611d22600383016000611dc8565b611d30600483016000611e02565b611d3e600583016000611dc8565b50600601611cec565b80821115611c8f576000611d5b8282611dc8565b50600101611d47565b828054828255906000526020600020908101928215611d9f579160200282015b82811115611d9f578251825591602001919060010190611d84565b50611c8f929150611e20565b80821115611c8f576000611dbf8282611e35565b50600101611dab565b508054611dd490612629565b6000825580601f10611de4575050565b601f016020900490600052602060002090810190611c3a9190611e20565b5080546000825590600052602060002090810190611c3a9190611d47565b5b80821115611c8f5760008155600101611e21565b5080546000825590600052602060002090810190611c3a9190611e20565b634e487b7160e01b600052604160045260246000fd5b604051601f8201601f1916810167ffffffffffffffff81118282101715611e9257611e92611e53565b604052919050565b600082601f830112611eab57600080fd5b813567ffffffffffffffff811115611ec557611ec5611e53565b611ed8601f8201601f1916602001611e69565b818152846020838601011115611eed57600080fd5b816020850160208301376000918101602001919091529392505050565b60008060408385031215611f1d57600080fd5b82359150602083013567ffffffffffffffff811115611f3b57600080fd5b611f4785828601611e9a565b9150509250929050565b60005b83811015611f6c578181015183820152602001611f54565b50506000910152565b60008151808452611f8d816020860160208601611f51565b601f01601f19169290920160200192915050565b602081526000611fb46020830184611f75565b9392505050565b60006020808301818452808551808352604092508286019150828160051b87010184880160005b8381101561203857888303603f190185528151805184528781015188850152868101518785015260609081015160809185018290529061202481860183611f75565b968901969450505090860190600101611fe2565b509098975050505050505050565b600081518084526020808501808196508360051b8101915082860160005b8581101561208e57828403895261207c848351611f75565b98850198935090840190600101612064565b5091979650505050505050565b805182526000602082015160c060208501526120ba60c0850182611f75565b9050604083015184820360408601526120d38282612046565b915050606083015184820360608601526120ed8282611f75565b915050608083015184820360808601526121078282612046565b91505060a083015184820360a08601526121218282611f75565b95945050505050565b6000602080830181845280855180835260408601915060408160051b870101925083870160005b8281101561217f57603f1988860301845261216d85835161209b565b94509285019290850190600101612151565b5092979650505050505050565b600080600080608085870312156121a257600080fd5b843593506020850135925060408501359150606085013567ffffffffffffffff8111156121ce57600080fd5b6121da87828801611e9a565b91505092959194509250565b6000602082840312156121f857600080fd5b5035919050565b602081526000611fb4602083018461209b565b60006020828403121561222457600080fd5b813567ffffffffffffffff81111561223b57600080fd5b61224784828501611e9a565b949350505050565b600081518084526020808501808196508360051b810191508286016000805b868110156122bd578385038a52825180518087529087019087870190845b818110156122a85783518352928901929189019160010161228c565b50509a87019a9550509185019160010161226e565b509298975050505050505050565b6020815260008251602080840152612247604084018261224f565b600067ffffffffffffffff82111561230057612300611e53565b5060051b60200190565b60008060006060848603121561231f57600080fd5b833567ffffffffffffffff8082111561233757600080fd5b61234387838801611e9a565b945060209150818601358181111561235a57600080fd5b8601601f8101881361236b57600080fd5b803561237e612379826122e6565b611e69565b81815260059190911b8201840190848101908a83111561239d57600080fd5b8584015b838110156123d5578035868111156123b95760008081fd5b6123c78d8983890101611e9a565b8452509186019186016123a1565b50965050505060408601359150808211156123ef57600080fd5b506123fc86828701611e9a565b9150509250925092565b600082601f83011261241757600080fd5b81356020612427612379836122e6565b82815260059290921b8401810191818101908684111561244657600080fd5b8286015b84811015612461578035835291830191830161244a565b509695505050505050565b6000806000806080858703121561248257600080fd5b843567ffffffffffffffff8082111561249a57600080fd5b6124a688838901611e9a565b955060208701359150808211156124bc57600080fd5b6124c888838901612406565b945060408701359150808211156124de57600080fd5b6124ea88838901612406565b9350606087013591508082111561250057600080fd5b506121da87828801612406565b602081526000611fb4602083018461224f565b8381528260208201526060604082015260006121216060830184611f75565b8481528360208201528260408201526080606082015260006125646080830184611f75565b9695505050505050565b8481526080602082015260006125876080830186611f75565b82810360408401526125998186611f75565b905082810360608401526125ad8185611f75565b979650505050505050565b60006020808301818452808551808352604092508286019150828160051b87010184880160005b8381101561203857888303603f190185528151805184528781015188850152860151606087850181905261261581860183611f75565b9689019694505050908601906001016125df565b600181811c9082168061263d57607f821691505b60208210810361265d57634e487b7160e01b600052602260045260246000fd5b50919050565b601f8211156126ad57600081815260208120601f850160051c8101602086101561268a5750805b601f850160051c820191505b818110156126a957828155600101612696565b5050505b505050565b815167ffffffffffffffff8111156126cc576126cc611e53565b6126e0816126da8454612629565b84612663565b602080601f83116001811461271557600084156126fd5750858301515b600019600386901b1c1916600185901b1785556126a9565b600085815260208120601f198616915b8281101561274457888601518255948401946001909101908401612725565b50858210156127625787850151600019600388901b60f8161c191681555b5050505050600190811b01905550565b60006001820161279257634e487b7160e01b600052601160045260246000fd5b5060010190565b600082516127ab818460208701611f51565b9190910192915050565b634e487b7160e01b600052603260045260246000fdfe43726561746520757365722072696e672064657461696c207375636365737366756ca2646970667358221220c0f8ce37af862924f871ad74481b2bd6cd3a4035fedca9ff22750c47f6b7661c64736f6c63430008110033",
  "immutableReferences": {},
  "source": "// SPDX-License-Identifier: MIT\r\npragma solidity ^0.8.17;\r\n\r\ncontract evoting {\r\n\r\n    uint256 public eventId;\r\n    uint256 public recordId;\r\n\r\n    struct Event {\r\n        uint256 eid;\r\n        string question;\r\n        string[] answers;\r\n        string owner;\r\n        string[] participants;\r\n        string state;\r\n    }\r\n\r\n    struct Record {\r\n        uint256 rid;\r\n        uint256 eid;\r\n        string answer;\r\n    }\r\n    \r\n    struct Userringdetail {\r\n        uint256 x;\r\n        uint256 y;\r\n        uint256 id;\r\n        string urd_id;\r\n    }\r\n\r\n    struct partsign {\r\n        uint256[][] signature;\r\n    }\r\n\r\n    Event[] public allevent;\r\n    Record[] public allrecord;\r\n    Userringdetail[] public alluserringdetail;\r\n\r\n    mapping(uint256 => Event) votingevent;\r\n    mapping(uint256 => Record) eventrecord;\r\n    mapping(string => Userringdetail) eventuserringdetail;\r\n    mapping(string => partsign) eventpartsign;\r\n\r\n    function createevent(\r\n        string memory _question,\r\n        string[] memory _answers,\r\n        string memory _owner\r\n    ) public returns (string memory) {\r\n        string[] memory _a;\r\n\r\n        allevent.push(\r\n            Event(eventId, _question, _answers, _owner, _a, \"registration\")\r\n        );\r\n        votingevent[eventId].eid = eventId;\r\n        votingevent[eventId].question = _question;\r\n        votingevent[eventId].answers = _answers;\r\n        votingevent[eventId].owner = _owner;\r\n        votingevent[eventId].state = \"registration\";\r\n        eventId++;\r\n        return \"Create event successful\";\r\n    }\r\n\r\n    function changeeventstate(uint256 _eid, string memory state)\r\n        public\r\n        returns (string memory)\r\n    {\r\n        votingevent[_eid].state = state;\r\n        return votingevent[_eid].state;\r\n    }\r\n\r\n    function joinevent(uint256 _eid, string memory _name)\r\n        public\r\n        returns (string memory)\r\n    {\r\n        votingevent[_eid].participants.push(_name);\r\n        return \"join event successful\";\r\n    }\r\n\r\n    function voting(uint256 _eid, string memory _answer)\r\n        public\r\n        returns (string memory)\r\n    {\r\n        allrecord.push(Record(recordId, _eid, _answer));\r\n        eventrecord[_eid].rid = recordId;\r\n        eventrecord[_eid].eid = _eid;\r\n        eventrecord[_eid].answer = _answer;\r\n        recordId++;\r\n        return \"voting event successful\";\r\n    }\r\n\r\n    function createuserringdetail(\r\n        uint256 _x,\r\n        uint256 _y,\r\n        uint256 _id,\r\n        string memory _urd_id // eid?participants?\r\n    ) public returns (string memory) {\r\n\r\n        alluserringdetail.push(\r\n            Userringdetail(_x, _y, _id, _urd_id)\r\n        );\r\n        eventuserringdetail[_urd_id].x = _x;\r\n        eventuserringdetail[_urd_id].y = _y;\r\n        eventuserringdetail[_urd_id].id = _id;\r\n        eventuserringdetail[_urd_id].urd_id = _urd_id;\r\n\r\n        return \"Create user ring detail successful\";\r\n    }\r\n\r\n    function addpartsign(string memory _ps_id, uint256[] memory _a0, uint256[] memory _a1, uint256[] memory _a2) public returns (uint256[][] memory) {\r\n        uint256[][] memory nestedArray = new uint256[][](3);\r\n        nestedArray[0] = _a0;\r\n        nestedArray[1] = _a1;\r\n        nestedArray[2] = _a2;\r\n\r\n        eventpartsign[_ps_id].signature = nestedArray;\r\n\r\n        return eventpartsign[_ps_id].signature;\r\n    }\r\n\r\n    function viewevent(uint256 _eid) public view returns (Event memory) {\r\n        return (votingevent[_eid]);\r\n    }\r\n\r\n    function viewpartsign(string memory _ps_id) public view returns (partsign memory) {\r\n        return (eventpartsign[_ps_id]);\r\n    }\r\n\r\n    function viewallevent() public returns (Event[] memory) {\r\n        delete allevent;\r\n        for (uint256 eid = 0; eid < eventId; eid++) {\r\n            allevent.push(\r\n                Event(\r\n                    votingevent[eid].eid,\r\n                    votingevent[eid].question,\r\n                    votingevent[eid].answers,\r\n                    votingevent[eid].owner,\r\n                    votingevent[eid].participants,\r\n                    votingevent[eid].state\r\n                )\r\n            );\r\n        }\r\n        return (allevent);\r\n    }\r\n\r\n    function viewallrecord() public view returns (Record[] memory) {\r\n        return (allrecord);\r\n    }\r\n\r\n    function viewalleventuserringdetail() public view returns (Userringdetail[] memory) {\r\n        return (alluserringdetail);\r\n    }\r\n}\r\n",
  "sourcePath": "D:\\AlexM\\polyu IS\\COMP4913\\evoting\\contracts\\evoting.sol",
  "compiler": {
    "name": "solc",
    "version": "0.8.17+commit.8df45f5f.Emscripten.clang"
  },
  "schemaVersion": "3.4.11",
  "updatedAt": "2023-04-04T04:50:45.750Z",
  "networkType": "ethereum",
  "devdoc": {
    "kind": "dev",
    "methods": {},
    "version": 1
  },
  "userdoc": {
    "kind": "user",
    "methods": {},
    "version": 1
  }
}