{
  "contractName": "evoting",
  "abi": [
    {
      "inputs": [
        {
          "internalType": "uint256",
          "name": "",
          "type": "uint256"
        }
      ],
      "name": "allevent",
      "outputs": [
        {
          "internalType": "uint256",
          "name": "eid",
          "type": "uint256"
        },
        {
          "internalType": "string",
          "name": "question",
          "type": "string"
        },
        {
          "internalType": "string",
          "name": "owner",
          "type": "string"
        },
        {
          "internalType": "string",
          "name": "state",
          "type": "string"
        }
      ],
      "stateMutability": "view",
      "type": "function",
      "constant": true
    },
    {
      "inputs": [
        {
          "internalType": "uint256",
          "name": "",
          "type": "uint256"
        }
      ],
      "name": "allrecord",
      "outputs": [
        {
          "internalType": "uint256",
          "name": "rid",
          "type": "uint256"
        },
        {
          "internalType": "uint256",
          "name": "eid",
          "type": "uint256"
        },
        {
          "internalType": "string",
          "name": "answer",
          "type": "string"
        }
      ],
      "stateMutability": "view",
      "type": "function",
      "constant": true
    },
    {
      "inputs": [],
      "name": "eventId",
      "outputs": [
        {
          "internalType": "uint256",
          "name": "",
          "type": "uint256"
        }
      ],
      "stateMutability": "view",
      "type": "function",
      "constant": true
    },
    {
      "inputs": [],
      "name": "recordId",
      "outputs": [
        {
          "internalType": "uint256",
          "name": "",
          "type": "uint256"
        }
      ],
      "stateMutability": "view",
      "type": "function",
      "constant": true
    },
    {
      "inputs": [
        {
          "internalType": "string",
          "name": "_question",
          "type": "string"
        },
        {
          "internalType": "string[]",
          "name": "_answers",
          "type": "string[]"
        },
        {
          "internalType": "string",
          "name": "_owner",
          "type": "string"
        },
        {
          "internalType": "string[]",
          "name": "_a",
          "type": "string[]"
        }
      ],
      "name": "createevent",
      "outputs": [
        {
          "internalType": "string",
          "name": "",
          "type": "string"
        }
      ],
      "stateMutability": "nonpayable",
      "type": "function"
    },
    {
      "inputs": [
        {
          "internalType": "uint256",
          "name": "_eid",
          "type": "uint256"
        }
      ],
      "name": "changeeventstate",
      "outputs": [
        {
          "internalType": "string",
          "name": "",
          "type": "string"
        }
      ],
      "stateMutability": "nonpayable",
      "type": "function"
    },
    {
      "inputs": [
        {
          "internalType": "uint256",
          "name": "_eid",
          "type": "uint256"
        },
        {
          "internalType": "string",
          "name": "_name",
          "type": "string"
        }
      ],
      "name": "joinevent",
      "outputs": [
        {
          "internalType": "string",
          "name": "",
          "type": "string"
        }
      ],
      "stateMutability": "nonpayable",
      "type": "function"
    },
    {
      "inputs": [
        {
          "internalType": "uint256",
          "name": "_eid",
          "type": "uint256"
        },
        {
          "internalType": "string",
          "name": "_answer",
          "type": "string"
        }
      ],
      "name": "voting",
      "outputs": [
        {
          "internalType": "string",
          "name": "",
          "type": "string"
        }
      ],
      "stateMutability": "nonpayable",
      "type": "function"
    },
    {
      "inputs": [
        {
          "internalType": "uint256",
          "name": "_eid",
          "type": "uint256"
        }
      ],
      "name": "vieweventparticipants",
      "outputs": [
        {
          "internalType": "string[]",
          "name": "",
          "type": "string[]"
        }
      ],
      "stateMutability": "view",
      "type": "function",
      "constant": true
    },
    {
      "inputs": [
        {
          "internalType": "uint256",
          "name": "_eid",
          "type": "uint256"
        }
      ],
      "name": "viewrecord",
      "outputs": [
        {
          "internalType": "string",
          "name": "",
          "type": "string"
        }
      ],
      "stateMutability": "view",
      "type": "function",
      "constant": true
    },
    {
      "inputs": [],
      "name": "viewallevent",
      "outputs": [
        {
          "components": [
            {
              "internalType": "uint256",
              "name": "eid",
              "type": "uint256"
            },
            {
              "internalType": "string",
              "name": "question",
              "type": "string"
            },
            {
              "internalType": "string[]",
              "name": "answers",
              "type": "string[]"
            },
            {
              "internalType": "string",
              "name": "owner",
              "type": "string"
            },
            {
              "internalType": "string[]",
              "name": "participants",
              "type": "string[]"
            },
            {
              "internalType": "string",
              "name": "state",
              "type": "string"
            }
          ],
          "internalType": "struct evoting.Event[]",
          "name": "",
          "type": "tuple[]"
        }
      ],
      "stateMutability": "view",
      "type": "function",
      "constant": true
    }
  ],
  "bytecode": "0x608060405234801561001057600080fd5b506119fd806100206000396000f3fe608060405234801561001057600080fd5b50600436106100a85760003560e01c80635265d936116100715780635265d93614610135578063605b8bf714610148578063ca671a251461016a578063d16746e01461018d578063dd5e86d6146101a0578063f7dfe22b146101b357600080fd5b8062fb7e01146100ad578063089cdd0c146100d657806313d9e8ee146100ed5780632a4da94b14610102578063350c924814610122575b600080fd5b6100c06100bb366004611346565b6101bc565b6040516100cd91906113dd565b60405180910390f35b6100df60005481565b6040519081526020016100cd565b6100f561045d565b6040516100cd919061144c565b61011561011036600461152e565b61082e565b6040516100cd9190611547565b6100c0610130366004611346565b61091d565b6100c061014336600461152e565b610aee565b61015b61015636600461152e565b610b93565b6040516100cd939291906115a9565b61017d61017836600461152e565b610c55565b6040516100cd94939291906115d1565b6100c061019b36600461152e565b610e29565b6100c06101ae3660046116ba565b610fa2565b6100df60015481565b60405165766f74696e6760d01b602082015260609060260160408051601f1981840301815282825280516020918201206000878152600483529290922091926102099260050191016117a1565b604051602081830303815290604052805190602001200361043b5760005b60008481526004602052604090206002015481101561040057826040516020016102519190611817565b60408051601f19818403018152918152815160209283012060008781526004909352912060020180548390811061028a5761028a611833565b906000526020600020016040516020016102a491906117a1565b60405160208183030381529060405280519060200120036103ee5760408051606081018252600180548252602082018781529282018681526003805492830181556000819052835192027fc2575a0e9e593c00f959f8c92f12db2869c3395a3b0502d05e2516446f71f85b810192835593517fc2575a0e9e593c00f959f8c92f12db2869c3395a3b0502d05e2516446f71f85c85015551919290917fc2575a0e9e593c00f959f8c92f12db2869c3395a3b0502d05e2516446f71f85d9091019061036e9082611898565b5050600180546000878152600560205260409020908155908101869055600201905061039a8482611898565b50600180549060006103ab83611958565b91905055506040518060400160405280601781526020017f766f74696e67206576656e74207375636365737366756c000000000000000000815250915050610457565b806103f881611958565b915050610227565b505060408051808201909152601781527f63616e6e6f742066696e64207468697320616e737765720000000000000000006020820152610457565b6040518060600160405280602181526020016119806021913990505b92915050565b60606002805480602002602001604051908101604052809291908181526020016000905b8282101561082557838290600052602060002090600602016040518060c0016040529081600082015481526020016001820180546104be90611767565b80601f01602080910402602001604051908101604052809291908181526020018280546104ea90611767565b80156105375780601f1061050c57610100808354040283529160200191610537565b820191906000526020600020905b81548152906001019060200180831161051a57829003601f168201915b5050505050815260200160028201805480602002602001604051908101604052809291908181526020016000905b8282101561061157838290600052602060002001805461058490611767565b80601f01602080910402602001604051908101604052809291908181526020018280546105b090611767565b80156105fd5780601f106105d2576101008083540402835291602001916105fd565b820191906000526020600020905b8154815290600101906020018083116105e057829003601f168201915b505050505081526020019060010190610565565b50505050815260200160038201805461062990611767565b80601f016020809104026020016040519081016040528092919081815260200182805461065590611767565b80156106a25780601f10610677576101008083540402835291602001916106a2565b820191906000526020600020905b81548152906001019060200180831161068557829003601f168201915b5050505050815260200160048201805480602002602001604051908101604052809291908181526020016000905b8282101561077c5783829060005260206000200180546106ef90611767565b80601f016020809104026020016040519081016040528092919081815260200182805461071b90611767565b80156107685780601f1061073d57610100808354040283529160200191610768565b820191906000526020600020905b81548152906001019060200180831161074b57829003601f168201915b5050505050815260200190600101906106d0565b50505050815260200160058201805461079490611767565b80601f01602080910402602001604051908101604052809291908181526020018280546107c090611767565b801561080d5780601f106107e25761010080835404028352916020019161080d565b820191906000526020600020905b8154815290600101906020018083116107f057829003601f168201915b50505050508152505081526020019060010190610481565b50505050905090565b606060046000838152602001908152602001600020600401805480602002602001604051908101604052809291908181526020016000905b8282101561091257838290600052602060002001805461088590611767565b80601f01602080910402602001604051908101604052809291908181526020018280546108b190611767565b80156108fe5780601f106108d3576101008083540402835291602001916108fe565b820191906000526020600020905b8154815290600101906020018083116108e157829003601f168201915b505050505081526020019060010190610866565b505050509050919050565b6040516b3932b3b4b9ba3930ba34b7b760a11b6020820152606090602c0160408051601f1981840301815282825280516020918201206000878152600483529290922091926109709260050191016117a1565b6040516020818303038152906040528051906020012003610ace5760005b60008481526004602081905260409091200154811015610a6f57826040516020016109b99190611817565b604051602081830303815290604052805190602001206004600086815260200190815260200160002060040182815481106109f6576109f6611833565b90600052602060002001604051602001610a1091906117a1565b6040516020818303038152906040528051906020012003610a5d575050604080518082019091526014815273185b1c9958591e481a9bda5b995908195d995b9d60621b6020820152610457565b80610a6781611958565b91505061098e565b50600083815260046020818152604083209091018054600181018255908352912001610a9b8382611898565b50506040805180820190915260158152741a9bda5b88195d995b9d081cdd58d8d95cdcd99d5b605a1b6020820152610457565b6040518060600160405280602781526020016119a1602791399050610457565b6000818152600560205260409020600201805460609190610b0e90611767565b80601f0160208091040260200160405190810160405280929190818152602001828054610b3a90611767565b8015610b875780601f10610b5c57610100808354040283529160200191610b87565b820191906000526020600020905b815481529060010190602001808311610b6a57829003601f168201915b50505050509050919050565b60038181548110610ba357600080fd5b9060005260206000209060030201600091509050806000015490806001015490806002018054610bd290611767565b80601f0160208091040260200160405190810160405280929190818152602001828054610bfe90611767565b8015610c4b5780601f10610c2057610100808354040283529160200191610c4b565b820191906000526020600020905b815481529060010190602001808311610c2e57829003601f168201915b5050505050905083565b60028181548110610c6557600080fd5b60009182526020909120600690910201805460018201805491935090610c8a90611767565b80601f0160208091040260200160405190810160405280929190818152602001828054610cb690611767565b8015610d035780601f10610cd857610100808354040283529160200191610d03565b820191906000526020600020905b815481529060010190602001808311610ce657829003601f168201915b505050505090806003018054610d1890611767565b80601f0160208091040260200160405190810160405280929190818152602001828054610d4490611767565b8015610d915780601f10610d6657610100808354040283529160200191610d91565b820191906000526020600020905b815481529060010190602001808311610d7457829003601f168201915b505050505090806005018054610da690611767565b80601f0160208091040260200160405190810160405280929190818152602001828054610dd290611767565b8015610e1f5780601f10610df457610100808354040283529160200191610e1f565b820191906000526020600020905b815481529060010190602001808311610e0257829003601f168201915b5050505050905084565b6040516b3932b3b4b9ba3930ba34b7b760a11b6020820152606090602c0160408051601f198184030181528282528051602091820120600086815260048352929092209192610e7c9260050191016117a1565b6040516020818303038152906040528051906020012003610ede5760405180604001604052806006815260200165766f74696e6760d01b815250600460008481526020019081526020016000206005019081610ed89190611898565b50610f86565b60405165766f74696e6760d01b602082015260260160408051601f198184030181528282528051602091820120600086815260048352929092209192610f289260050191016117a1565b6040516020818303038152906040528051906020012003610f8657604051806040016040528060068152602001651c995cdd5b1d60d21b815250600460008481526020019081526020016000206005019081610f849190611898565b505b60008281526004602052604090206005018054610b0e90611767565b6040805160c08101825260008054825260208083018881528385018890526060848101889052608085018790528551808701909652600c86526b3932b3b4b9ba3930ba34b7b760a11b9286019290925260a0840194909452600280546001810182559252825160069092027f405787fa12a823e0f2b7631cc41b3ba8828b3321ca811111fa75cd3aa3bb5ace8101928355935190937f405787fa12a823e0f2b7631cc41b3ba8828b3321ca811111fa75cd3aa3bb5acf01906110649082611898565b50604082015180516110809160028401916020909101906111ca565b50606082015160038201906110959082611898565b50608082015180516110b19160048401916020909101906111ca565b5060a082015160058201906110c69082611898565b5050600080548082526004602052604090912090815560010190506110eb8682611898565b506000805481526004602090815260409091208551611112926002909201918701906111ca565b5060008054815260046020526040902060030161112f8482611898565b506040518060400160405280600c81526020016b3932b3b4b9ba3930ba34b7b760a11b815250600460008054815260200190815260200160002060050190816111789190611898565b5060008054908061118883611958565b909155505060408051808201909152601781527f437265617465206576656e74207375636365737366756c000000000000000000602082015295945050505050565b828054828255906000526020600020908101928215611210579160200282015b8281111561121057825182906112009082611898565b50916020019190600101906111ea565b5061121c929150611220565b5090565b8082111561121c576000611234828261123d565b50600101611220565b50805461124990611767565b6000825580601f10611259575050565b601f016020900490600052602060002090810190611277919061127a565b50565b5b8082111561121c576000815560010161127b565b634e487b7160e01b600052604160045260246000fd5b604051601f8201601f1916810167ffffffffffffffff811182821017156112ce576112ce61128f565b604052919050565b600082601f8301126112e757600080fd5b813567ffffffffffffffff8111156113015761130161128f565b611314601f8201601f19166020016112a5565b81815284602083860101111561132957600080fd5b816020850160208301376000918101602001919091529392505050565b6000806040838503121561135957600080fd5b82359150602083013567ffffffffffffffff81111561137757600080fd5b611383858286016112d6565b9150509250929050565b60005b838110156113a8578181015183820152602001611390565b50506000910152565b600081518084526113c981602086016020860161138d565b601f01601f19169290920160200192915050565b6020815260006113f060208301846113b1565b9392505050565b600081518084526020808501808196508360051b8101915082860160005b8581101561143f57828403895261142d8483516113b1565b98850198935090840190600101611415565b5091979650505050505050565b60006020808301818452808551808352604092508286019150828160051b87010184880160005b8381101561152057603f19898403018552815160c08151855288820151818a8701526114a1828701826113b1565b91505087820151858203898701526114b982826113f7565b915050606080830151868303828801526114d383826113b1565b92505050608080830151868303828801526114ee83826113f7565b9250505060a0808301519250858203818701525061150c81836113b1565b968901969450505090860190600101611473565b509098975050505050505050565b60006020828403121561154057600080fd5b5035919050565b6000602080830181845280855180835260408601915060408160051b870101925083870160005b8281101561159c57603f1988860301845261158a8583516113b1565b9450928501929085019060010161156e565b5092979650505050505050565b8381528260208201526060604082015260006115c860608301846113b1565b95945050505050565b8481526080602082015260006115ea60808301866113b1565b82810360408401526115fc81866113b1565b9050828103606084015261161081856113b1565b979650505050505050565b600082601f83011261162c57600080fd5b8135602067ffffffffffffffff808311156116495761164961128f565b8260051b6116588382016112a5565b938452858101830193838101908886111561167257600080fd5b84880192505b858310156116ae578235848111156116905760008081fd5b61169e8a87838c01016112d6565b8352509184019190840190611678565b98975050505050505050565b600080600080608085870312156116d057600080fd5b843567ffffffffffffffff808211156116e857600080fd5b6116f4888389016112d6565b9550602087013591508082111561170a57600080fd5b6117168883890161161b565b9450604087013591508082111561172c57600080fd5b611738888389016112d6565b9350606087013591508082111561174e57600080fd5b5061175b8782880161161b565b91505092959194509250565b600181811c9082168061177b57607f821691505b60208210810361179b57634e487b7160e01b600052602260045260246000fd5b50919050565b60008083546117af81611767565b600182811680156117c757600181146117dc5761180b565b60ff198416875282151583028701945061180b565b8760005260208060002060005b858110156118025781548a8201529084019082016117e9565b50505082870194505b50929695505050505050565b6000825161182981846020870161138d565b9190910192915050565b634e487b7160e01b600052603260045260246000fd5b601f82111561189357600081815260208120601f850160051c810160208610156118705750805b601f850160051c820191505b8181101561188f5782815560010161187c565b5050505b505050565b815167ffffffffffffffff8111156118b2576118b261128f565b6118c6816118c08454611767565b84611849565b602080601f8311600181146118fb57600084156118e35750858301515b600019600386901b1c1916600185901b17855561188f565b600085815260208120601f198616915b8281101561192a5788860151825594840194600190910190840161190b565b50858210156119485787850151600019600388901b60f8161c191681555b5050505050600190811b01905550565b60006001820161197857634e487b7160e01b600052601160045260246000fd5b506001019056fe54686973206576656e74206973206e6f7420696e20766f74696e6720737461746554686973206576656e74206973206e6f7420696e20726567697374726174696f6e207374617465a2646970667358221220fc2f2861cee8e2e5f1d0c184941a6fef18460d75d406b1ea677597ca0d4ea5ba64736f6c63430008110033",
  "immutableReferences": {},
  "source": "// SPDX-License-Identifier: MIT\r\npragma solidity ^0.8.17;\r\n\r\ncontract evoting {\r\n    uint256 public eventId;\r\n    uint256 public recordId;\r\n\r\n    struct Event {\r\n        uint256 eid;\r\n        string question;\r\n        string[] answers;\r\n        string owner;\r\n        string[] participants;\r\n        string state;\r\n    }\r\n\r\n    struct Record {\r\n        uint256 rid;\r\n        uint256 eid;\r\n        string answer;\r\n    }\r\n\r\n    Event[] public allevent;\r\n    Record[] public allrecord;\r\n    mapping(uint256 => Event) votingevent;\r\n    mapping(uint256 => Record) eventresult;\r\n\r\n    function createevent(\r\n        string memory _question,\r\n        string[] memory _answers,\r\n        string memory _owner,\r\n        string[] memory _a\r\n    ) public returns (string memory) {\r\n        allevent.push(\r\n            Event(eventId, _question, _answers, _owner, _a, \"registration\")\r\n        );\r\n        votingevent[eventId].eid = eventId;\r\n        votingevent[eventId].question = _question;\r\n        votingevent[eventId].answers = _answers;\r\n        votingevent[eventId].owner = _owner;\r\n        votingevent[eventId].state = \"registration\";\r\n        eventId++;\r\n        return \"Create event successful\";\r\n    }\r\n\r\n    function changeeventstate(uint256 _eid) public returns (string memory) {\r\n        if (\r\n            keccak256(abi.encodePacked(votingevent[_eid].state)) ==\r\n            keccak256(abi.encodePacked(\"registration\"))\r\n        ) {\r\n            votingevent[_eid].state = \"voting\";\r\n        } else if (\r\n            keccak256(abi.encodePacked(votingevent[_eid].state)) ==\r\n            keccak256(abi.encodePacked(\"voting\"))\r\n        ) {\r\n            votingevent[_eid].state = \"result\";\r\n        }\r\n        return votingevent[_eid].state;\r\n    }\r\n\r\n    function joinevent(uint256 _eid, string memory _name)\r\n        public\r\n        returns (string memory)\r\n    {\r\n        if (\r\n            keccak256(abi.encodePacked(votingevent[_eid].state)) ==\r\n            keccak256(abi.encodePacked(\"registration\"))\r\n        ) {\r\n            for (uint256 i = 0; i < votingevent[_eid].participants.length; i++) {\r\n                if ( keccak256(abi.encodePacked(votingevent[_eid].participants[i])) == keccak256(abi.encodePacked(_name))) {\r\n                    return \"already joined event\";\r\n                }\r\n            }\r\n            votingevent[_eid].participants.push(_name);\r\n            return \"join event successful\";\r\n        } else {\r\n            return \"This event is not in registration state\";\r\n        }\r\n    }\r\n\r\n    function voting(uint256 _eid, string memory _answer) public returns (string memory)\r\n    {\r\n        if (\r\n            keccak256(abi.encodePacked(votingevent[_eid].state)) ==\r\n            keccak256(abi.encodePacked(\"voting\"))\r\n        ) {\r\n\r\n            for (uint256 i = 0; i < votingevent[_eid].answers.length; i++) {\r\n                if ( keccak256(abi.encodePacked(votingevent[_eid].answers[i])) == keccak256(abi.encodePacked(_answer))) {\r\n                    allrecord.push(Record(recordId, _eid, _answer));\r\n                    eventresult[_eid].rid = recordId;\r\n                    eventresult[_eid].eid = _eid;\r\n                    eventresult[_eid].answer = _answer;\r\n                    recordId++;\r\n                    return \"voting event successful\";\r\n                }\r\n            }\r\n            return \"cannot find this answer\";\r\n        } else {\r\n            return \"This event is not in voting state\";\r\n        }\r\n    }\r\n\r\n    function vieweventparticipants(uint256 _eid)public view returns (string[] memory)\r\n    {\r\n        return (votingevent[_eid].participants);\r\n    }\r\n\r\n    function viewrecord(uint256 _eid) public view returns (string memory)\r\n    {\r\n        return (eventresult[_eid].answer);\r\n    }\r\n\r\n    function viewallevent() public view returns (Event[] memory) {\r\n        return (allevent);\r\n    }\r\n}\r\n",
  "sourcePath": "D:\\AlexM\\polyu IS\\COMP4913\\evoting\\contracts\\evoting.sol",
  "compiler": {
    "name": "solc",
    "version": "0.8.17+commit.8df45f5f.Emscripten.clang"
  },
  "schemaVersion": "3.4.11",
  "updatedAt": "2023-03-16T21:26:24.817Z",
  "networkType": "ethereum",
  "devdoc": {
    "kind": "dev",
    "methods": {},
    "version": 1
  },
  "userdoc": {
    "kind": "user",
    "methods": {},
    "version": 1
  }
}