{
  "contractName": "HelloWorld",
  "abi": [
    {
      "inputs": [
        {
          "internalType": "uint256",
          "name": "",
          "type": "uint256"
        }
      ],
      "name": "allUser",
      "outputs": [
        {
          "internalType": "address",
          "name": "addr",
          "type": "address"
        },
        {
          "internalType": "string",
          "name": "name",
          "type": "string"
        },
        {
          "internalType": "string",
          "name": "password",
          "type": "string"
        },
        {
          "internalType": "string",
          "name": "email",
          "type": "string"
        },
        {
          "internalType": "bool",
          "name": "isUserLoggedIn",
          "type": "bool"
        }
      ],
      "stateMutability": "view",
      "type": "function",
      "constant": true
    },
    {
      "inputs": [],
      "name": "payload",
      "outputs": [
        {
          "internalType": "string",
          "name": "",
          "type": "string"
        }
      ],
      "stateMutability": "view",
      "type": "function",
      "constant": true
    },
    {
      "inputs": [
        {
          "internalType": "string",
          "name": "_name",
          "type": "string"
        },
        {
          "internalType": "string",
          "name": "_password",
          "type": "string"
        },
        {
          "internalType": "string",
          "name": "_email",
          "type": "string"
        }
      ],
      "name": "register",
      "outputs": [
        {
          "internalType": "bool",
          "name": "",
          "type": "bool"
        }
      ],
      "stateMutability": "nonpayable",
      "type": "function"
    },
    {
      "inputs": [
        {
          "internalType": "address",
          "name": "_addr",
          "type": "address"
        },
        {
          "internalType": "string",
          "name": "_password",
          "type": "string"
        }
      ],
      "name": "login",
      "outputs": [
        {
          "internalType": "bool",
          "name": "",
          "type": "bool"
        }
      ],
      "stateMutability": "nonpayable",
      "type": "function"
    },
    {
      "inputs": [
        {
          "internalType": "address",
          "name": "_addr",
          "type": "address"
        }
      ],
      "name": "checkIsUserLogged",
      "outputs": [
        {
          "internalType": "bool",
          "name": "",
          "type": "bool"
        }
      ],
      "stateMutability": "view",
      "type": "function",
      "constant": true
    },
    {
      "inputs": [
        {
          "internalType": "address",
          "name": "_addr",
          "type": "address"
        }
      ],
      "name": "logoutUser",
      "outputs": [],
      "stateMutability": "nonpayable",
      "type": "function"
    },
    {
      "inputs": [],
      "name": "viewregisteduser",
      "outputs": [
        {
          "components": [
            {
              "internalType": "address",
              "name": "addr",
              "type": "address"
            },
            {
              "internalType": "string",
              "name": "name",
              "type": "string"
            },
            {
              "internalType": "string",
              "name": "password",
              "type": "string"
            },
            {
              "internalType": "string",
              "name": "email",
              "type": "string"
            },
            {
              "internalType": "bool",
              "name": "isUserLoggedIn",
              "type": "bool"
            }
          ],
          "internalType": "struct HelloWorld.UserDetail[]",
          "name": "",
          "type": "tuple[]"
        }
      ],
      "stateMutability": "view",
      "type": "function",
      "constant": true
    }
  ],
  "bytecode": "0x608060405234801561001057600080fd5b50610dee806100206000396000f3fe608060405234801561001057600080fd5b506004361061007d5760003560e01c806345a020a51161005b57806345a020a51461010d5780634cd08d0314610131578063a878f85814610144578063c1082e9a1461015957600080fd5b806309df506014610082578063297f7b39146100b65780632f19d50b146100fa575b600080fd5b6100b461009036600461087c565b6001600160a01b03166000908152600660205260409020600401805460ff19169055565b005b6100e56100c436600461087c565b6001600160a01b031660009081526006602052604090206004015460ff1690565b60405190151581526020015b60405180910390f35b6100e5610108366004610941565b61016e565b61012061011b36600461098f565b610214565b6040516100f19594939291906109f8565b6100e561013f366004610a57565b6103fb565b61014c610595565b6040516100f19190610adf565b610161610623565b6040516100f19190610af2565b6000816040516020016101819190610bb6565b60408051601f1981840301815282825280516020918201206001600160a01b0387166000908152600683529290922091926101c0926002019101610c0c565b604051602081830303815290604052805190602001200361020a57506001600160a01b0382166000908152600660205260409020600401805460ff1916600190811790915561020e565b5060005b92915050565b6003818154811061022457600080fd5b6000918252602090912060059091020180546001820180546001600160a01b0390921693509061025390610bd2565b80601f016020809104026020016040519081016040528092919081815260200182805461027f90610bd2565b80156102cc5780601f106102a1576101008083540402835291602001916102cc565b820191906000526020600020905b8154815290600101906020018083116102af57829003601f168201915b5050505050908060020180546102e190610bd2565b80601f016020809104026020016040519081016040528092919081815260200182805461030d90610bd2565b801561035a5780601f1061032f5761010080835404028352916020019161035a565b820191906000526020600020905b81548152906001019060200180831161033d57829003601f168201915b50505050509080600301805461036f90610bd2565b80601f016020809104026020016040519081016040528092919081815260200182805461039b90610bd2565b80156103e85780601f106103bd576101008083540402835291602001916103e8565b820191906000526020600020905b8154815290600101906020018083116103cb57829003601f168201915b5050506004909301549192505060ff1685565b6040805160a08101825233815260208101858152918101849052606081018390526000608082018190526003805460018101825590825282517fc2575a0e9e593c00f959f8c92f12db2869c3395a3b0502d05e2516446f71f85b600590920291820180546001600160a01b0319166001600160a01b0390921691909117815593519193917fc2575a0e9e593c00f959f8c92f12db2869c3395a3b0502d05e2516446f71f85c909101906104ae9082610cd1565b50604082015160028201906104c39082610cd1565b50606082015160038201906104d89082610cd1565b50608091909101516004909101805460ff19169115159190911790556002805490600061050483610d91565b909155505033600081815260066020526040902080546001600160a01b03191690911781556001016105368582610cd1565b503360009081526006602052604090206002016105538482610cd1565b503360009081526006602052604090206003016105708382610cd1565b5050336000908152600660205260409020600401805460ff1916905560019392505050565b600080546105a290610bd2565b80601f01602080910402602001604051908101604052809291908181526020018280546105ce90610bd2565b801561061b5780601f106105f05761010080835404028352916020019161061b565b820191906000526020600020905b8154815290600101906020018083116105fe57829003601f168201915b505050505081565b60606003805480602002602001604051908101604052809291908181526020016000905b828210156108575760008481526020908190206040805160a081019091526005850290910180546001600160a01b03168252600181018054929391929184019161069090610bd2565b80601f01602080910402602001604051908101604052809291908181526020018280546106bc90610bd2565b80156107095780601f106106de57610100808354040283529160200191610709565b820191906000526020600020905b8154815290600101906020018083116106ec57829003601f168201915b5050505050815260200160028201805461072290610bd2565b80601f016020809104026020016040519081016040528092919081815260200182805461074e90610bd2565b801561079b5780601f106107705761010080835404028352916020019161079b565b820191906000526020600020905b81548152906001019060200180831161077e57829003601f168201915b505050505081526020016003820180546107b490610bd2565b80601f01602080910402602001604051908101604052809291908181526020018280546107e090610bd2565b801561082d5780601f106108025761010080835404028352916020019161082d565b820191906000526020600020905b81548152906001019060200180831161081057829003601f168201915b50505091835250506004919091015460ff1615156020918201529082526001929092019101610647565b50505050905090565b80356001600160a01b038116811461087757600080fd5b919050565b60006020828403121561088e57600080fd5b61089782610860565b9392505050565b634e487b7160e01b600052604160045260246000fd5b600082601f8301126108c557600080fd5b813567ffffffffffffffff808211156108e0576108e061089e565b604051601f8301601f19908116603f011681019082821181831017156109085761090861089e565b8160405283815286602085880101111561092157600080fd5b836020870160208301376000602085830101528094505050505092915050565b6000806040838503121561095457600080fd5b61095d83610860565b9150602083013567ffffffffffffffff81111561097957600080fd5b610985858286016108b4565b9150509250929050565b6000602082840312156109a157600080fd5b5035919050565b60005b838110156109c35781810151838201526020016109ab565b50506000910152565b600081518084526109e48160208601602086016109a8565b601f01601f19169290920160200192915050565b6001600160a01b038616815260a060208201819052600090610a1c908301876109cc565b8281036040840152610a2e81876109cc565b90508281036060840152610a4281866109cc565b91505082151560808301529695505050505050565b600080600060608486031215610a6c57600080fd5b833567ffffffffffffffff80821115610a8457600080fd5b610a90878388016108b4565b94506020860135915080821115610aa657600080fd5b610ab2878388016108b4565b93506040860135915080821115610ac857600080fd5b50610ad5868287016108b4565b9150509250925092565b60208152600061089760208301846109cc565b60006020808301818452808551808352604092508286019150828160051b87010184880160005b83811015610ba857888303603f19018552815180516001600160a01b031684528781015160a089860181905290610b52828701826109cc565b9150508782015185820389870152610b6a82826109cc565b91505060608083015186830382880152610b8483826109cc565b60809485015115159790940196909652505094870194925090860190600101610b19565b509098975050505050505050565b60008251610bc88184602087016109a8565b9190910192915050565b600181811c90821680610be657607f821691505b602082108103610c0657634e487b7160e01b600052602260045260246000fd5b50919050565b6000808354610c1a81610bd2565b60018281168015610c325760018114610c4757610c76565b60ff1984168752821515830287019450610c76565b8760005260208060002060005b85811015610c6d5781548a820152908401908201610c54565b50505082870194505b50929695505050505050565b601f821115610ccc57600081815260208120601f850160051c81016020861015610ca95750805b601f850160051c820191505b81811015610cc857828155600101610cb5565b5050505b505050565b815167ffffffffffffffff811115610ceb57610ceb61089e565b610cff81610cf98454610bd2565b84610c82565b602080601f831160018114610d345760008415610d1c5750858301515b600019600386901b1c1916600185901b178555610cc8565b600085815260208120601f198616915b82811015610d6357888601518255948401946001909101908401610d44565b5085821015610d815787850151600019600388901b60f8161c191681555b5050505050600190811b01905550565b600060018201610db157634e487b7160e01b600052601160045260246000fd5b506001019056fea2646970667358221220f084c525b1c890bbfb7d3c41f0d5f3b841e7e5db8eeb43e98012286d12dd91ca64736f6c63430008110033",
  "immutableReferences": {},
  "source": "// SPDX-License-Identifier: MIT\r\npragma solidity ^0.8.17;\r\n\r\ncontract HelloWorld {\r\n\r\n  // address public owner = msg.sender;\r\n  string public payload;\r\n  // address[] allUser;\r\n  string[] allUsername;\r\n  uint userId;\r\n\r\n  /* constructor() {   \r\n    owner = msg.sender;\r\n  } */\r\n  struct UserDetail {\r\n    address addr;\r\n    string name;\r\n    string password;\r\n    string email;\r\n    bool isUserLoggedIn;\r\n  }\r\n\r\n  UserDetail[] public allUser;\r\n  mapping (address => uint) uid;\r\n  mapping (uint => address) useraddr;\r\n  mapping(address => UserDetail) user;\r\n\r\n  function register(\r\n\r\n    string memory _name,\r\n    string memory _password,\r\n    string memory _email\r\n\r\n    ) public returns (bool) {\r\n\r\n    allUser.push(UserDetail(msg.sender, _name, _password, _email, false));\r\n    userId++;\r\n\r\n    user[msg.sender].addr = msg.sender;\r\n    user[msg.sender].name = _name;\r\n    user[msg.sender].password = _password;\r\n    user[msg.sender].email = _email;\r\n    user[msg.sender].isUserLoggedIn = false;\r\n    return true;\r\n\r\n  }\r\n\r\n  function login(address _addr, string memory _password)\r\n      public returns (bool){\r\n      if (\r\n          keccak256(abi.encodePacked(user[_addr].password)) ==\r\n          keccak256(abi.encodePacked(_password))\r\n      ) {\r\n          user[_addr].isUserLoggedIn = true;\r\n          return user[_addr].isUserLoggedIn;\r\n      } else {\r\n          return false;\r\n      }\r\n  }\r\n  \r\n  function checkIsUserLogged(address _addr)\r\n      public view returns (bool){\r\n      return (user[_addr].isUserLoggedIn);\r\n  }\r\n\r\n  function logoutUser(address _addr) public {\r\n      user[_addr].isUserLoggedIn = false;\r\n  }\r\n  \r\n  function viewregisteduser() view public returns (UserDetail[] memory) {\r\n      return allUser;\r\n  }\r\n}",
  "sourcePath": "D:\\AlexM\\polyu IS\\COMP4913\\evoting\\contracts\\helloworld.sol",
  "compiler": {
    "name": "solc",
    "version": "0.8.17+commit.8df45f5f.Emscripten.clang"
  },
  "schemaVersion": "3.4.11",
  "updatedAt": "2023-04-04T04:50:45.731Z",
  "networkType": "ethereum",
  "devdoc": {
    "kind": "dev",
    "methods": {},
    "version": 1
  },
  "userdoc": {
    "kind": "user",
    "methods": {},
    "version": 1
  }
}